{
    "contractName": "KERC20",
    "abi": [
        {
            "inputs": [
                {
                    "internalType": "string",
                    "name": "name_",
                    "type": "string"
                },
                {
                    "internalType": "string",
                    "name": "symbol_",
                    "type": "string"
                },
                {
                    "internalType": "uint8",
                    "name": "decimals_",
                    "type": "uint8"
                },
                {
                    "internalType": "uint256",
                    "name": "initialSupply_",
                    "type": "uint256"
                }
            ],
            "stateMutability": "nonpayable",
            "type": "constructor"
        },
        {
            "anonymous": false,
            "inputs": [
                {
                    "indexed": true,
                    "internalType": "address",
                    "name": "owner",
                    "type": "address"
                },
                {
                    "indexed": true,
                    "internalType": "address",
                    "name": "spender",
                    "type": "address"
                },
                {
                    "indexed": false,
                    "internalType": "uint256",
                    "name": "value",
                    "type": "uint256"
                }
            ],
            "name": "Approval",
            "type": "event"
        },
        {
            "anonymous": false,
            "inputs": [
                {
                    "indexed": true,
                    "internalType": "address",
                    "name": "minter",
                    "type": "address"
                },
                {
                    "indexed": false,
                    "internalType": "bool",
                    "name": "statement",
                    "type": "bool"
                }
            ],
            "name": "MinterTrueFalse",
            "type": "event"
        },
        {
            "anonymous": false,
            "inputs": [
                {
                    "indexed": true,
                    "internalType": "address",
                    "name": "previousOwner",
                    "type": "address"
                },
                {
                    "indexed": true,
                    "internalType": "address",
                    "name": "newOwner",
                    "type": "address"
                }
            ],
            "name": "OwnershipTransferred",
            "type": "event"
        },
        {
            "anonymous": false,
            "inputs": [
                {
                    "indexed": true,
                    "internalType": "address",
                    "name": "from",
                    "type": "address"
                },
                {
                    "indexed": true,
                    "internalType": "address",
                    "name": "to",
                    "type": "address"
                },
                {
                    "indexed": false,
                    "internalType": "uint256",
                    "name": "value",
                    "type": "uint256"
                }
            ],
            "name": "Transfer",
            "type": "event"
        },
        {
            "inputs": [
                {
                    "internalType": "address",
                    "name": "owner",
                    "type": "address"
                },
                {
                    "internalType": "address",
                    "name": "spender",
                    "type": "address"
                }
            ],
            "name": "allowance",
            "outputs": [
                {
                    "internalType": "uint256",
                    "name": "",
                    "type": "uint256"
                }
            ],
            "stateMutability": "view",
            "type": "function"
        },
        {
            "inputs": [
                {
                    "internalType": "address",
                    "name": "spender",
                    "type": "address"
                },
                {
                    "internalType": "uint256",
                    "name": "amount",
                    "type": "uint256"
                }
            ],
            "name": "approve",
            "outputs": [
                {
                    "internalType": "bool",
                    "name": "",
                    "type": "bool"
                }
            ],
            "stateMutability": "nonpayable",
            "type": "function"
        },
        {
            "inputs": [
                {
                    "internalType": "address",
                    "name": "account",
                    "type": "address"
                }
            ],
            "name": "balanceOf",
            "outputs": [
                {
                    "internalType": "uint256",
                    "name": "",
                    "type": "uint256"
                }
            ],
            "stateMutability": "view",
            "type": "function"
        },
        {
            "inputs": [
                {
                    "internalType": "address",
                    "name": "account",
                    "type": "address"
                },
                {
                    "internalType": "uint256",
                    "name": "amount",
                    "type": "uint256"
                }
            ],
            "name": "burn",
            "outputs": [],
            "stateMutability": "nonpayable",
            "type": "function"
        },
        {
            "inputs": [],
            "name": "decimals",
            "outputs": [
                {
                    "internalType": "uint8",
                    "name": "",
                    "type": "uint8"
                }
            ],
            "stateMutability": "view",
            "type": "function"
        },
        {
            "inputs": [
                {
                    "internalType": "address",
                    "name": "minter",
                    "type": "address"
                }
            ],
            "name": "demoteMinter",
            "outputs": [],
            "stateMutability": "nonpayable",
            "type": "function"
        },
        {
            "inputs": [
                {
                    "internalType": "address",
                    "name": "account",
                    "type": "address"
                },
                {
                    "internalType": "uint256",
                    "name": "amount",
                    "type": "uint256"
                }
            ],
            "name": "mint",
            "outputs": [],
            "stateMutability": "nonpayable",
            "type": "function"
        },
        {
            "inputs": [],
            "name": "name",
            "outputs": [
                {
                    "internalType": "string",
                    "name": "",
                    "type": "string"
                }
            ],
            "stateMutability": "view",
            "type": "function"
        },
        {
            "inputs": [],
            "name": "owner",
            "outputs": [
                {
                    "internalType": "address",
                    "name": "",
                    "type": "address"
                }
            ],
            "stateMutability": "view",
            "type": "function"
        },
        {
            "inputs": [
                {
                    "internalType": "address",
                    "name": "minter",
                    "type": "address"
                }
            ],
            "name": "promoteMinter",
            "outputs": [],
            "stateMutability": "nonpayable",
            "type": "function"
        },
        {
            "inputs": [],
            "name": "renounceOwnership",
            "outputs": [],
            "stateMutability": "nonpayable",
            "type": "function"
        },
        {
            "inputs": [],
            "name": "symbol",
            "outputs": [
                {
                    "internalType": "string",
                    "name": "",
                    "type": "string"
                }
            ],
            "stateMutability": "view",
            "type": "function"
        },
        {
            "inputs": [],
            "name": "totalSupply",
            "outputs": [
                {
                    "internalType": "uint256",
                    "name": "",
                    "type": "uint256"
                }
            ],
            "stateMutability": "view",
            "type": "function"
        },
        {
            "inputs": [
                {
                    "internalType": "address",
                    "name": "recipient",
                    "type": "address"
                },
                {
                    "internalType": "uint256",
                    "name": "amount",
                    "type": "uint256"
                }
            ],
            "name": "transfer",
            "outputs": [
                {
                    "internalType": "bool",
                    "name": "",
                    "type": "bool"
                }
            ],
            "stateMutability": "nonpayable",
            "type": "function"
        },
        {
            "inputs": [
                {
                    "internalType": "address",
                    "name": "sender",
                    "type": "address"
                },
                {
                    "internalType": "address",
                    "name": "recipient",
                    "type": "address"
                },
                {
                    "internalType": "uint256",
                    "name": "amount",
                    "type": "uint256"
                }
            ],
            "name": "transferFrom",
            "outputs": [
                {
                    "internalType": "bool",
                    "name": "",
                    "type": "bool"
                }
            ],
            "stateMutability": "nonpayable",
            "type": "function"
        },
        {
            "inputs": [
                {
                    "internalType": "address",
                    "name": "newOwner",
                    "type": "address"
                }
            ],
            "name": "transferOwnership",
            "outputs": [],
            "stateMutability": "nonpayable",
            "type": "function"
        }
    ],
    "bytecode": "60806040523480156200001157600080fd5b506040516200136038038062001360833981016040819052620000349162000386565b6200003f33620000a2565b83516200005490600690602087019062000229565b5082516200006a90600790602086019062000229565b506005805460ff191660ff841617905562000098620000916000546001600160a01b031690565b82620000f2565b505050506200048b565b600080546001600160a01b038381166001600160a01b0319831681178455604051919092169283917f8be0079c531659141344cd1fd0a4f28419497f9722a3daafe3b4186f6b6457e09190a35050565b6001600160a01b0382166200014d5760405162461bcd60e51b815260206004820152601f60248201527f45524332303a206d696e7420746f20746865207a65726f206164647265737300604482015260640160405180910390fd5b6200016981600454620001fc60201b620008c01790919060201c565b6004556001600160a01b0382166000908152600260209081526040909120546200019e918390620008c0620001fc821b17901c565b6001600160a01b0383166000818152600260205260408082209390935591519091907fddf252ad1be2c89b69c2b068fc378daa952ba7f163c4a11628f55a4df523b3ef90620001f09085815260200190565b60405180910390a35050565b6000826200020b838262000411565b116200021657600080fd5b62000222828462000411565b9392505050565b828054620002379062000438565b90600052602060002090601f0160209004810192826200025b5760008555620002a6565b82601f106200027657805160ff1916838001178555620002a6565b82800160010185558215620002a6579182015b82811115620002a657825182559160200191906001019062000289565b50620002b4929150620002b8565b5090565b5b80821115620002b45760008155600101620002b9565b600082601f830112620002e157600080fd5b81516001600160401b0380821115620002fe57620002fe62000475565b604051601f8301601f19908116603f0116810190828211818310171562000329576200032962000475565b816040528381526020925086838588010111156200034657600080fd5b600091505b838210156200036a57858201830151818301840152908201906200034b565b838211156200037c5760008385830101525b9695505050505050565b600080600080608085870312156200039d57600080fd5b84516001600160401b0380821115620003b557600080fd5b620003c388838901620002cf565b95506020870151915080821115620003da57600080fd5b50620003e987828801620002cf565b935050604085015160ff811681146200040157600080fd5b6060959095015193969295505050565b600082198211156200043357634e487b7160e01b600052601160045260246000fd5b500190565b600181811c908216806200044d57607f821691505b602082108114156200046f57634e487b7160e01b600052602260045260246000fd5b50919050565b634e487b7160e01b600052604160045260246000fd5b610ec5806200049b6000396000f3fe608060405234801561001057600080fd5b50600436106101005760003560e01c8063715018a6116100975780639dc29fac116100665780639dc29fac14610209578063a9059cbb1461021c578063dd62ed3e1461022f578063f2fde38b1461026857600080fd5b8063715018a6146101cb5780637dccffe1146101d35780638da5cb5b146101e657806395d89b411461020157600080fd5b8063313ce567116100d3578063313ce5671461016b578063370dfe001461017a57806340c10f191461018f57806370a08231146101a257600080fd5b806306fdde0314610105578063095ea7b31461012357806318160ddd1461014657806323b872dd14610158575b600080fd5b61010d61027b565b60405161011a9190610d65565b60405180910390f35b610136610131366004610d3b565b61030d565b604051901515815260200161011a565b6004545b60405190815260200161011a565b610136610166366004610cff565b610323565b6040516012815260200161011a565b61018d610188366004610cb1565b61055b565b005b61018d61019d366004610d3b565b6105df565b61014a6101b0366004610cb1565b6001600160a01b031660009081526002602052604090205490565b61018d610657565b61018d6101e1366004610cb1565b61068d565b6000546040516001600160a01b03909116815260200161011a565b61010d610706565b61018d610217366004610d3b565b610715565b61013661022a366004610d3b565b610789565b61014a61023d366004610ccc565b6001600160a01b03918216600090815260036020908152604080832093909416825291909152205490565b61018d610276366004610cb1565b610825565b60606006805461028a90610e1e565b80601f01602080910402602001604051908101604052809291908181526020018280546102b690610e1e565b80156103035780601f106102d857610100808354040283529160200191610303565b820191906000526020600020905b8154815290600101906020018083116102e657829003601f168201915b5050505050905090565b600061031a3384846108e8565b50600192915050565b60006001600160a01b03841661038e5760405162461bcd60e51b815260206004820152602560248201527f45524332303a207472616e736665722066726f6d20746865207a65726f206164604482015264647265737360d81b60648201526084015b60405180910390fd5b6001600160a01b0383166103f05760405162461bcd60e51b815260206004820152602360248201527f45524332303a207472616e7366657220746f20746865207a65726f206164647260448201526265737360e81b6064820152608401610385565b6001600160a01b038085166000908152600360209081526040808320938716835292905220548211156104745760405162461bcd60e51b815260206004820152602660248201527f45524332303a207472616e7366657220616d6f756e7420657863656564732062604482015265616c616e636560d01b6064820152608401610385565b6001600160a01b0384166000908152600260205260409020546104979083610a0d565b6001600160a01b0380861660009081526002602052604080822093909355908516815220546104c690836108c0565b6001600160a01b03808516600081815260026020908152604080832095909555928816815260038352838120918152915220546105039083610a0d565b6001600160a01b03858116600081815260036020908152604080832094891680845294825291829020949094555185815291929091600080516020610e70833981519152910160405180910390a35060019392505050565b6000546001600160a01b031633146105855760405162461bcd60e51b815260040161038590610dba565b6001600160a01b038116600081815260016020818152604092839020805460ff19168317905591519081527f4b3dc648e4c10e70b1399fdcd8b3c6f7ac2910c5a594fc511fac160ea1eeb58a91015b60405180910390a250565b3360009081526001602052604090205460ff166106495760405162461bcd60e51b815260206004820152602260248201527f4d696e7461626c653a2063616c6c6572206973206e6f7420746865206d696e7460448201526132b960f11b6064820152608401610385565b6106538282610a2e565b5050565b6000546001600160a01b031633146106815760405162461bcd60e51b815260040161038590610dba565b61068b6000610b02565b565b6000546001600160a01b031633146106b75760405162461bcd60e51b815260040161038590610dba565b6001600160a01b0381166000818152600160209081526040808320805460ff19169055519182527f4b3dc648e4c10e70b1399fdcd8b3c6f7ac2910c5a594fc511fac160ea1eeb58a91016105d4565b60606007805461028a90610e1e565b6001600160a01b038216331461077f5760405162461bcd60e51b815260206004820152602960248201527f4b45524332303a20506f737369626c6520746f206275726e206f6e6c79206f776044820152686e656420636f696e7360b81b6064820152608401610385565b6106538282610b52565b336000908152600260205260408120546107a39083610a0d565b33600090815260026020526040808220929092556001600160a01b038516815220546107cf90836108c0565b6001600160a01b038416600081815260026020526040902091909155336001600160a01b0316600080516020610e708339815191528460405161081491815260200190565b60405180910390a350600192915050565b6000546001600160a01b0316331461084f5760405162461bcd60e51b815260040161038590610dba565b6001600160a01b0381166108b45760405162461bcd60e51b815260206004820152602660248201527f4f776e61626c653a206e6577206f776e657220697320746865207a65726f206160448201526564647265737360d01b6064820152608401610385565b6108bd81610b02565b50565b6000826108cd8382610def565b116108d757600080fd5b6108e18284610def565b9392505050565b6001600160a01b03831661094a5760405162461bcd60e51b8152602060048201526024808201527f45524332303a20617070726f76652066726f6d20746865207a65726f206164646044820152637265737360e01b6064820152608401610385565b6001600160a01b0382166109ab5760405162461bcd60e51b815260206004820152602260248201527f45524332303a20617070726f766520746f20746865207a65726f206164647265604482015261737360f01b6064820152608401610385565b6001600160a01b0383811660008181526003602090815260408083209487168084529482529182902085905590518481527f8c5be1e5ebec7d5bd14f71427d1e84f3dd0314c0f7b2291e5b200ac8c7c3b92591015b60405180910390a3505050565b600082610a1a8382610e07565b10610a2457600080fd5b6108e18284610e07565b6001600160a01b038216610a845760405162461bcd60e51b815260206004820152601f60248201527f45524332303a206d696e7420746f20746865207a65726f2061646472657373006044820152606401610385565b600454610a9190826108c0565b6004556001600160a01b038216600090815260026020526040902054610ab790826108c0565b6001600160a01b038316600081815260026020526040808220939093559151909190600080516020610e7083398151915290610af69085815260200190565b60405180910390a35050565b600080546001600160a01b038381166001600160a01b0319831681178455604051919092169283917f8be0079c531659141344cd1fd0a4f28419497f9722a3daafe3b4186f6b6457e09190a35050565b6001600160a01b038216610bb25760405162461bcd60e51b815260206004820152602160248201527f45524332303a206275726e2066726f6d20746865207a65726f206164647265736044820152607360f81b6064820152608401610385565b6001600160a01b03821660009081526002602052604090205481811015610c265760405162461bcd60e51b815260206004820152602260248201527f45524332303a206275726e20616d6f756e7420657863656564732062616c616e604482015261636560f01b6064820152608401610385565b600454610c339083610a0d565b6004556001600160a01b038316600090815260026020526040902054610c599083610a0d565b6001600160a01b038416600081815260026020526040808220939093559151600080516020610e7083398151915290610a009086815260200190565b80356001600160a01b0381168114610cac57600080fd5b919050565b600060208284031215610cc357600080fd5b6108e182610c95565b60008060408385031215610cdf57600080fd5b610ce883610c95565b9150610cf660208401610c95565b90509250929050565b600080600060608486031215610d1457600080fd5b610d1d84610c95565b9250610d2b60208501610c95565b9150604084013590509250925092565b60008060408385031215610d4e57600080fd5b610d5783610c95565b946020939093013593505050565b600060208083528351808285015260005b81811015610d9257858101830151858201604001528201610d76565b81811115610da4576000604083870101525b50601f01601f1916929092016040019392505050565b6020808252818101527f4f776e61626c653a2063616c6c6572206973206e6f7420746865206f776e6572604082015260600190565b60008219821115610e0257610e02610e59565b500190565b600082821015610e1957610e19610e59565b500390565b600181811c90821680610e3257607f821691505b60208210811415610e5357634e487b7160e01b600052602260045260246000fd5b50919050565b634e487b7160e01b600052601160045260246000fdfeddf252ad1be2c89b69c2b068fc378daa952ba7f163c4a11628f55a4df523b3efa2646970667358221220e32c36f8614c3f85bae48cd88b840d679c3d2986748f158036a61355aecf995c64736f6c63430008060033",
    "sourcePath": "/home/fuse-power/github/sol_low/erc20-good/erc20-own.sol",
    "compiler": {
        "name": "solc",
        "version": "0.8.6+commit.11564f7e"
    },
    "functionHashes": {
        "allowance(address,address)": "dd62ed3e",
        "approve(address,uint256)": "095ea7b3",
        "balanceOf(address)": "70a08231",
        "burn(address,uint256)": "9dc29fac",
        "decimals()": "313ce567",
        "demoteMinter(address)": "7dccffe1",
        "mint(address,uint256)": "40c10f19",
        "name()": "06fdde03",
        "owner()": "8da5cb5b",
        "promoteMinter(address)": "370dfe00",
        "renounceOwnership()": "715018a6",
        "symbol()": "95d89b41",
        "totalSupply()": "18160ddd",
        "transfer(address,uint256)": "a9059cbb",
        "transferFrom(address,address,uint256)": "23b872dd",
        "transferOwnership(address)": "f2fde38b"
    },
    "gasEstimates": {
        "creation": {
            "codeDepositCost": "756200",
            "executionCost": "infinite",
            "totalCost": "infinite"
        },
        "external": {
            "allowance(address,address)": "infinite",
            "approve(address,uint256)": "24643",
            "balanceOf(address)": "2626",
            "burn(address,uint256)": "infinite",
            "decimals()": "200",
            "demoteMinter(address)": "28241",
            "mint(address,uint256)": "infinite",
            "name()": "infinite",
            "owner()": "2368",
            "promoteMinter(address)": "28242",
            "renounceOwnership()": "28137",
            "symbol()": "infinite",
            "totalSupply()": "2349",
            "transfer(address,uint256)": "infinite",
            "transferFrom(address,address,uint256)": "infinite",
            "transferOwnership(address)": "28397"
        },
        "internal": {
            "_approve(address,address,uint256)": "infinite",
            "_burn(address,uint256)": "infinite",
            "_mint(address,uint256)": "infinite"
        }
    }
}